{
  "contractName": "ClinicalData",
  "abi": [
    {
      "inputs": [],
      "stateMutability": "nonpayable",
      "type": "constructor"
    },
    {
      "inputs": [],
      "name": "minter",
      "outputs": [
        {
          "internalType": "address",
          "name": "",
          "type": "address"
        }
      ],
      "stateMutability": "view",
      "type": "function",
      "constant": true
    },
    {
      "inputs": [
        {
          "components": [
            {
              "components": [
                {
                  "internalType": "string",
                  "name": "name",
                  "type": "string"
                },
                {
                  "internalType": "string",
                  "name": "occupation",
                  "type": "string"
                },
                {
                  "internalType": "string",
                  "name": "gender",
                  "type": "string"
                },
                {
                  "internalType": "uint256",
                  "name": "birthDate",
                  "type": "uint256"
                }
              ],
              "internalType": "struct Patient",
              "name": "patient",
              "type": "tuple"
            },
            {
              "components": [
                {
                  "internalType": "string",
                  "name": "name",
                  "type": "string"
                },
                {
                  "internalType": "string",
                  "name": "crm",
                  "type": "string"
                },
                {
                  "internalType": "string",
                  "name": "specialization",
                  "type": "string"
                }
              ],
              "internalType": "struct Doctor",
              "name": "doctor",
              "type": "tuple"
            },
            {
              "components": [
                {
                  "internalType": "string[]",
                  "name": "exams",
                  "type": "string[]"
                },
                {
                  "internalType": "string[]",
                  "name": "symptons",
                  "type": "string[]"
                },
                {
                  "internalType": "string[]",
                  "name": "diagnosis",
                  "type": "string[]"
                },
                {
                  "internalType": "uint256",
                  "name": "registrationDate",
                  "type": "uint256"
                }
              ],
              "internalType": "struct Appointment",
              "name": "appointment",
              "type": "tuple"
            }
          ],
          "internalType": "struct ClinicalDataType",
          "name": "_clinicalData",
          "type": "tuple"
        }
      ],
      "name": "save",
      "outputs": [],
      "stateMutability": "nonpayable",
      "type": "function"
    },
    {
      "inputs": [],
      "name": "get",
      "outputs": [
        {
          "components": [
            {
              "components": [
                {
                  "internalType": "string",
                  "name": "name",
                  "type": "string"
                },
                {
                  "internalType": "string",
                  "name": "occupation",
                  "type": "string"
                },
                {
                  "internalType": "string",
                  "name": "gender",
                  "type": "string"
                },
                {
                  "internalType": "uint256",
                  "name": "birthDate",
                  "type": "uint256"
                }
              ],
              "internalType": "struct Patient",
              "name": "patient",
              "type": "tuple"
            },
            {
              "components": [
                {
                  "internalType": "string",
                  "name": "name",
                  "type": "string"
                },
                {
                  "internalType": "string",
                  "name": "crm",
                  "type": "string"
                },
                {
                  "internalType": "string",
                  "name": "specialization",
                  "type": "string"
                }
              ],
              "internalType": "struct Doctor",
              "name": "doctor",
              "type": "tuple"
            },
            {
              "components": [
                {
                  "internalType": "string[]",
                  "name": "exams",
                  "type": "string[]"
                },
                {
                  "internalType": "string[]",
                  "name": "symptons",
                  "type": "string[]"
                },
                {
                  "internalType": "string[]",
                  "name": "diagnosis",
                  "type": "string[]"
                },
                {
                  "internalType": "uint256",
                  "name": "registrationDate",
                  "type": "uint256"
                }
              ],
              "internalType": "struct Appointment",
              "name": "appointment",
              "type": "tuple"
            }
          ],
          "internalType": "struct ClinicalDataType",
          "name": "",
          "type": "tuple"
        }
      ],
      "stateMutability": "view",
      "type": "function",
      "constant": true
    },
    {
      "inputs": [
        {
          "internalType": "address",
          "name": "_reader",
          "type": "address"
        }
      ],
      "name": "get",
      "outputs": [
        {
          "components": [
            {
              "components": [
                {
                  "internalType": "string",
                  "name": "name",
                  "type": "string"
                },
                {
                  "internalType": "string",
                  "name": "occupation",
                  "type": "string"
                },
                {
                  "internalType": "string",
                  "name": "gender",
                  "type": "string"
                },
                {
                  "internalType": "uint256",
                  "name": "birthDate",
                  "type": "uint256"
                }
              ],
              "internalType": "struct Patient",
              "name": "patient",
              "type": "tuple"
            },
            {
              "components": [
                {
                  "internalType": "string",
                  "name": "name",
                  "type": "string"
                },
                {
                  "internalType": "string",
                  "name": "crm",
                  "type": "string"
                },
                {
                  "internalType": "string",
                  "name": "specialization",
                  "type": "string"
                }
              ],
              "internalType": "struct Doctor",
              "name": "doctor",
              "type": "tuple"
            },
            {
              "components": [
                {
                  "internalType": "string[]",
                  "name": "exams",
                  "type": "string[]"
                },
                {
                  "internalType": "string[]",
                  "name": "symptons",
                  "type": "string[]"
                },
                {
                  "internalType": "string[]",
                  "name": "diagnosis",
                  "type": "string[]"
                },
                {
                  "internalType": "uint256",
                  "name": "registrationDate",
                  "type": "uint256"
                }
              ],
              "internalType": "struct Appointment",
              "name": "appointment",
              "type": "tuple"
            }
          ],
          "internalType": "struct ClinicalDataType",
          "name": "",
          "type": "tuple"
        }
      ],
      "stateMutability": "view",
      "type": "function",
      "constant": true
    }
  ],
  "bytecode": "0x608060405234801561001057600080fd5b50336000806101000a81548173ffffffffffffffffffffffffffffffffffffffff021916908373ffffffffffffffffffffffffffffffffffffffff160217905550611e50806100606000396000f3fe608060405234801561001057600080fd5b506004361061004c5760003560e01c8063075461721461005157806355e14ec61461006f5780636d4ce63c1461008b578063c2bc2efc146100a9575b600080fd5b6100596100d9565b6040516100669190611abf565b60405180910390f35b610089600480360381019061008491906117ba565b6100fd565b005b610093610306565b6040516100a09190611b1a565b60405180910390f35b6100c360048036038101906100be9190611791565b610a2d565b6040516100d09190611b1a565b60405180910390f35b60008054906101000a900473ffffffffffffffffffffffffffffffffffffffff1681565b60008054906101000a900473ffffffffffffffffffffffffffffffffffffffff168073ffffffffffffffffffffffffffffffffffffffff163373ffffffffffffffffffffffffffffffffffffffff16148061018357508073ffffffffffffffffffffffffffffffffffffffff163273ffffffffffffffffffffffffffffffffffffffff16145b6101c2576040517f08c379a00000000000000000000000000000000000000000000000000000000081526004016101b990611ada565b60405180910390fd5b81600160008201518160000160008201518160000190805190602001906101ea9291906111a5565b5060208201518160010190805190602001906102079291906111a5565b5060408201518160020190805190602001906102249291906111a5565b5060608201518160030155505060208201518160040160008201518160000190805190602001906102569291906111a5565b5060208201518160010190805190602001906102739291906111a5565b5060408201518160020190805190602001906102909291906111a5565b50505060408201518160070160008201518160000190805190602001906102b892919061122b565b5060208201518160010190805190602001906102d592919061122b565b5060408201518160020190805190602001906102f292919061122b565b506060820151816003015550509050505050565b61030e61128b565b60008054906101000a900473ffffffffffffffffffffffffffffffffffffffff168073ffffffffffffffffffffffffffffffffffffffff163373ffffffffffffffffffffffffffffffffffffffff16148061039457508073ffffffffffffffffffffffffffffffffffffffff163273ffffffffffffffffffffffffffffffffffffffff16145b6103d3576040517f08c379a00000000000000000000000000000000000000000000000000000000081526004016103ca90611ada565b60405180910390fd5b60016040518060600160405290816000820160405180608001604052908160008201805461040090611ca2565b80601f016020809104026020016040519081016040528092919081815260200182805461042c90611ca2565b80156104795780601f1061044e57610100808354040283529160200191610479565b820191906000526020600020905b81548152906001019060200180831161045c57829003601f168201915b5050505050815260200160018201805461049290611ca2565b80601f01602080910402602001604051908101604052809291908181526020018280546104be90611ca2565b801561050b5780601f106104e05761010080835404028352916020019161050b565b820191906000526020600020905b8154815290600101906020018083116104ee57829003601f168201915b5050505050815260200160028201805461052490611ca2565b80601f016020809104026020016040519081016040528092919081815260200182805461055090611ca2565b801561059d5780601f106105725761010080835404028352916020019161059d565b820191906000526020600020905b81548152906001019060200180831161058057829003601f168201915b505050505081526020016003820154815250508152602001600482016040518060600160405290816000820180546105d490611ca2565b80601f016020809104026020016040519081016040528092919081815260200182805461060090611ca2565b801561064d5780601f106106225761010080835404028352916020019161064d565b820191906000526020600020905b81548152906001019060200180831161063057829003601f168201915b5050505050815260200160018201805461066690611ca2565b80601f016020809104026020016040519081016040528092919081815260200182805461069290611ca2565b80156106df5780601f106106b4576101008083540402835291602001916106df565b820191906000526020600020905b8154815290600101906020018083116106c257829003601f168201915b505050505081526020016002820180546106f890611ca2565b80601f016020809104026020016040519081016040528092919081815260200182805461072490611ca2565b80156107715780601f1061074657610100808354040283529160200191610771565b820191906000526020600020905b81548152906001019060200180831161075457829003601f168201915b50505050508152505081526020016007820160405180608001604052908160008201805480602002602001604051908101604052809291908181526020016000905b8282101561085f5783829060005260206000200180546107d290611ca2565b80601f01602080910402602001604051908101604052809291908181526020018280546107fe90611ca2565b801561084b5780601f106108205761010080835404028352916020019161084b565b820191906000526020600020905b81548152906001019060200180831161082e57829003601f168201915b5050505050815260200190600101906107b3565b50505050815260200160018201805480602002602001604051908101604052809291908181526020016000905b828210156109385783829060005260206000200180546108ab90611ca2565b80601f01602080910402602001604051908101604052809291908181526020018280546108d790611ca2565b80156109245780601f106108f957610100808354040283529160200191610924565b820191906000526020600020905b81548152906001019060200180831161090757829003601f168201915b50505050508152602001906001019061088c565b50505050815260200160028201805480602002602001604051908101604052809291908181526020016000905b82821015610a1157838290600052602060002001805461098490611ca2565b80601f01602080910402602001604051908101604052809291908181526020018280546109b090611ca2565b80156109fd5780601f106109d2576101008083540402835291602001916109fd565b820191906000526020600020905b8154815290600101906020018083116109e057829003601f168201915b505050505081526020019060010190610965565b5050505081526020016003820154815250508152505091505090565b610a3561128b565b818073ffffffffffffffffffffffffffffffffffffffff163373ffffffffffffffffffffffffffffffffffffffff161480610a9b57508073ffffffffffffffffffffffffffffffffffffffff163273ffffffffffffffffffffffffffffffffffffffff16145b610ada576040517f08c379a0000000000000000000000000000000000000000000000000000000008152600401610ad190611ada565b60405180910390fd5b3273ffffffffffffffffffffffffffffffffffffffff163373ffffffffffffffffffffffffffffffffffffffff161415610b49576040517f08c379a0000000000000000000000000000000000000000000000000000000008152600401610b4090611afa565b60405180910390fd5b600160405180606001604052908160008201604051806080016040529081600082018054610b7690611ca2565b80601f0160208091040260200160405190810160405280929190818152602001828054610ba290611ca2565b8015610bef5780601f10610bc457610100808354040283529160200191610bef565b820191906000526020600020905b815481529060010190602001808311610bd257829003601f168201915b50505050508152602001600182018054610c0890611ca2565b80601f0160208091040260200160405190810160405280929190818152602001828054610c3490611ca2565b8015610c815780601f10610c5657610100808354040283529160200191610c81565b820191906000526020600020905b815481529060010190602001808311610c6457829003601f168201915b50505050508152602001600282018054610c9a90611ca2565b80601f0160208091040260200160405190810160405280929190818152602001828054610cc690611ca2565b8015610d135780601f10610ce857610100808354040283529160200191610d13565b820191906000526020600020905b815481529060010190602001808311610cf657829003601f168201915b50505050508152602001600382015481525050815260200160048201604051806060016040529081600082018054610d4a90611ca2565b80601f0160208091040260200160405190810160405280929190818152602001828054610d7690611ca2565b8015610dc35780601f10610d9857610100808354040283529160200191610dc3565b820191906000526020600020905b815481529060010190602001808311610da657829003601f168201915b50505050508152602001600182018054610ddc90611ca2565b80601f0160208091040260200160405190810160405280929190818152602001828054610e0890611ca2565b8015610e555780601f10610e2a57610100808354040283529160200191610e55565b820191906000526020600020905b815481529060010190602001808311610e3857829003601f168201915b50505050508152602001600282018054610e6e90611ca2565b80601f0160208091040260200160405190810160405280929190818152602001828054610e9a90611ca2565b8015610ee75780601f10610ebc57610100808354040283529160200191610ee7565b820191906000526020600020905b815481529060010190602001808311610eca57829003601f168201915b50505050508152505081526020016007820160405180608001604052908160008201805480602002602001604051908101604052809291908181526020016000905b82821015610fd5578382906000526020600020018054610f4890611ca2565b80601f0160208091040260200160405190810160405280929190818152602001828054610f7490611ca2565b8015610fc15780601f10610f9657610100808354040283529160200191610fc1565b820191906000526020600020905b815481529060010190602001808311610fa457829003601f168201915b505050505081526020019060010190610f29565b50505050815260200160018201805480602002602001604051908101604052809291908181526020016000905b828210156110ae57838290600052602060002001805461102190611ca2565b80601f016020809104026020016040519081016040528092919081815260200182805461104d90611ca2565b801561109a5780601f1061106f5761010080835404028352916020019161109a565b820191906000526020600020905b81548152906001019060200180831161107d57829003601f168201915b505050505081526020019060010190611002565b50505050815260200160028201805480602002602001604051908101604052809291908181526020016000905b828210156111875783829060005260206000200180546110fa90611ca2565b80601f016020809104026020016040519081016040528092919081815260200182805461112690611ca2565b80156111735780601f1061114857610100808354040283529160200191611173565b820191906000526020600020905b81548152906001019060200180831161115657829003601f168201915b5050505050815260200190600101906110db565b50505050815260200160038201548152505081525050915050919050565b8280546111b190611ca2565b90600052602060002090601f0160209004810192826111d3576000855561121a565b82601f106111ec57805160ff191683800117855561121a565b8280016001018555821561121a579182015b828111156112195782518255916020019190600101906111fe565b5b50905061122791906112be565b5090565b82805482825590600052602060002090810192821561127a579160200282015b828111156112795782518290805190602001906112699291906111a5565b509160200191906001019061124b565b5b50905061128791906112db565b5090565b604051806060016040528061129e6112ff565b81526020016112ab611327565b81526020016112b8611348565b81525090565b5b808211156112d75760008160009055506001016112bf565b5090565b5b808211156112fb57600081816112f29190611370565b506001016112dc565b5090565b6040518060800160405280606081526020016060815260200160608152602001600081525090565b60405180606001604052806060815260200160608152602001606081525090565b6040518060800160405280606081526020016060815260200160608152602001600081525090565b50805461137c90611ca2565b6000825580601f1061138e57506113ad565b601f0160209004906000526020600020908101906113ac91906112be565b5b50565b60006113c36113be84611b61565b611b3c565b9050808382526020820190508260005b8581101561140357813585016113e9888261148a565b8452602084019350602083019250506001810190506113d3565b5050509392505050565b600061142061141b84611b8d565b611b3c565b90508281526020810184848401111561143857600080fd5b611443848285611c60565b509392505050565b60008135905061145a81611dec565b92915050565b600082601f83011261147157600080fd5b81356114818482602086016113b0565b91505092915050565b600082601f83011261149b57600080fd5b81356114ab84826020860161140d565b91505092915050565b6000608082840312156114c657600080fd5b6114d06080611b3c565b9050600082013567ffffffffffffffff8111156114ec57600080fd5b6114f884828501611460565b600083015250602082013567ffffffffffffffff81111561151857600080fd5b61152484828501611460565b602083015250604082013567ffffffffffffffff81111561154457600080fd5b61155084828501611460565b60408301525060606115648482850161177c565b60608301525092915050565b60006060828403121561158257600080fd5b61158c6060611b3c565b9050600082013567ffffffffffffffff8111156115a857600080fd5b6115b4848285016116c0565b600083015250602082013567ffffffffffffffff8111156115d457600080fd5b6115e084828501611618565b602083015250604082013567ffffffffffffffff81111561160057600080fd5b61160c848285016114b4565b60408301525092915050565b60006060828403121561162a57600080fd5b6116346060611b3c565b9050600082013567ffffffffffffffff81111561165057600080fd5b61165c8482850161148a565b600083015250602082013567ffffffffffffffff81111561167c57600080fd5b6116888482850161148a565b602083015250604082013567ffffffffffffffff8111156116a857600080fd5b6116b48482850161148a565b60408301525092915050565b6000608082840312156116d257600080fd5b6116dc6080611b3c565b9050600082013567ffffffffffffffff8111156116f857600080fd5b6117048482850161148a565b600083015250602082013567ffffffffffffffff81111561172457600080fd5b6117308482850161148a565b602083015250604082013567ffffffffffffffff81111561175057600080fd5b61175c8482850161148a565b60408301525060606117708482850161177c565b60608301525092915050565b60008135905061178b81611e03565b92915050565b6000602082840312156117a357600080fd5b60006117b18482850161144b565b91505092915050565b6000602082840312156117cc57600080fd5b600082013567ffffffffffffffff8111156117e657600080fd5b6117f284828501611570565b91505092915050565b60006118078383611893565b905092915050565b61181881611c24565b82525050565b600061182982611bce565b6118338185611bf1565b93508360208202850161184585611bbe565b8060005b85811015611881578484038952815161186285826117fb565b945061186d83611be4565b925060208a01995050600181019050611849565b50829750879550505050505092915050565b600061189e82611bd9565b6118a88185611c02565b93506118b8818560208601611c6f565b6118c181611d63565b840191505092915050565b60006118d9601083611c13565b91506118e482611d74565b602082019050919050565b60006118fc602a83611c13565b915061190782611d9d565b604082019050919050565b6000608083016000830151848203600086015261192f828261181e565b91505060208301518482036020860152611949828261181e565b91505060408301518482036040860152611963828261181e565b91505060608301516119786060860182611ab0565b508091505092915050565b600060608301600083015184820360008601526119a08282611a3f565b915050602083015184820360208601526119ba82826119e1565b915050604083015184820360408601526119d48282611912565b9150508091505092915050565b600060608301600083015184820360008601526119fe8282611893565b91505060208301518482036020860152611a188282611893565b91505060408301518482036040860152611a328282611893565b9150508091505092915050565b60006080830160008301518482036000860152611a5c8282611893565b91505060208301518482036020860152611a768282611893565b91505060408301518482036040860152611a908282611893565b9150506060830151611aa56060860182611ab0565b508091505092915050565b611ab981611c56565b82525050565b6000602082019050611ad4600083018461180f565b92915050565b60006020820190508181036000830152611af3816118cc565b9050919050565b60006020820190508181036000830152611b13816118ef565b9050919050565b60006020820190508181036000830152611b348184611983565b905092915050565b6000611b46611b57565b9050611b528282611cd4565b919050565b6000604051905090565b600067ffffffffffffffff821115611b7c57611b7b611d34565b5b602082029050602081019050919050565b600067ffffffffffffffff821115611ba857611ba7611d34565b5b611bb182611d63565b9050602081019050919050565b6000819050602082019050919050565b600081519050919050565b600081519050919050565b6000602082019050919050565b600082825260208201905092915050565b600082825260208201905092915050565b600082825260208201905092915050565b6000611c2f82611c36565b9050919050565b600073ffffffffffffffffffffffffffffffffffffffff82169050919050565b6000819050919050565b82818337600083830152505050565b60005b83811015611c8d578082015181840152602081019050611c72565b83811115611c9c576000848401525b50505050565b60006002820490506001821680611cba57607f821691505b60208210811415611cce57611ccd611d05565b5b50919050565b611cdd82611d63565b810181811067ffffffffffffffff82111715611cfc57611cfb611d34565b5b80604052505050565b7f4e487b7100000000000000000000000000000000000000000000000000000000600052602260045260246000fd5b7f4e487b7100000000000000000000000000000000000000000000000000000000600052604160045260246000fd5b6000601f19601f8301169050919050565b7f75736572206e6f7420616c6c6f77656400000000000000000000000000000000600082015250565b7f6f6e6c7920616e6f7468657220636f6e74726163742063616e2063616c6c207460008201527f686973206d6574686f6400000000000000000000000000000000000000000000602082015250565b611df581611c24565b8114611e0057600080fd5b50565b611e0c81611c56565b8114611e1757600080fd5b5056fea2646970667358221220a3cc577eae090011508b84f4a90e784c01bb967b3da13fff306641b61d76052964736f6c63430008010033",
  "immutableReferences": {},
  "source": "// SPDX-License-Identifier: MIT\npragma solidity >=0.4.22 <0.9.0;\n\nimport \"entities/ClinicalDataType.sol\";\n\ncontract ClinicalData {\n\n  address public minter;\n  ClinicalDataType clinicalData;\n\n  constructor() {\n    minter = msg.sender;\n  }\n  \n  modifier onlyBy(address _address){\n    require(msg.sender==_address || tx.origin == _address, 'user not allowed');\n    _;\n  }\n\n  modifier onlyExternal(){\n    require(msg.sender != tx.origin, 'only another contract can call this method');\n    _;\n  }\n\n  function save(ClinicalDataType memory _clinicalData) public onlyBy(minter) {\n    clinicalData = _clinicalData;\n  }\n\n  function get() public onlyBy(minter) view returns(ClinicalDataType memory) {\n    return clinicalData;\n  }\n  \n  function get(address _reader) public onlyBy(_reader) onlyExternal view returns(ClinicalDataType memory) {\n    return clinicalData;\n  }\n}",
  "sourcePath": "/home/henriquecouto/Projects/medicalchain/contracts/ClinicalData.sol",
  "compiler": {
    "name": "solc",
    "version": "0.8.1+commit.df193b15.Emscripten.clang"
  },
  "schemaVersion": "3.3.4",
  "updatedAt": "2021-03-14T01:18:03.109Z",
  "networkType": "ethereum",
  "devdoc": {
    "kind": "dev",
    "methods": {},
    "version": 1
  },
  "userdoc": {
    "kind": "user",
    "methods": {},
    "version": 1
  }
}