{
  "contractName": "TemporaryAccess",
  "abi": [
    {
      "inputs": [
        {
          "internalType": "uint256",
          "name": "_allowUntil",
          "type": "uint256"
        },
        {
          "internalType": "contract ClinicalData",
          "name": "_clinicalData",
          "type": "address"
        },
        {
          "internalType": "address",
          "name": "_reader",
          "type": "address"
        }
      ],
      "name": "allowAccess",
      "outputs": [],
      "stateMutability": "nonpayable",
      "type": "function"
    },
    {
      "inputs": [
        {
          "internalType": "contract ClinicalData",
          "name": "_clinicalData",
          "type": "address"
        }
      ],
      "name": "get",
      "outputs": [
        {
          "components": [
            {
              "components": [
                {
                  "internalType": "string",
                  "name": "name",
                  "type": "string"
                },
                {
                  "internalType": "string",
                  "name": "occupation",
                  "type": "string"
                },
                {
                  "internalType": "string",
                  "name": "gender",
                  "type": "string"
                },
                {
                  "internalType": "uint256",
                  "name": "birthDate",
                  "type": "uint256"
                }
              ],
              "internalType": "struct Patient",
              "name": "patient",
              "type": "tuple"
            },
            {
              "components": [
                {
                  "internalType": "string",
                  "name": "name",
                  "type": "string"
                },
                {
                  "internalType": "string",
                  "name": "crm",
                  "type": "string"
                },
                {
                  "internalType": "string",
                  "name": "specialization",
                  "type": "string"
                }
              ],
              "internalType": "struct Doctor",
              "name": "doctor",
              "type": "tuple"
            },
            {
              "components": [
                {
                  "internalType": "string[]",
                  "name": "exams",
                  "type": "string[]"
                },
                {
                  "internalType": "string[]",
                  "name": "symptons",
                  "type": "string[]"
                },
                {
                  "internalType": "string[]",
                  "name": "diagnosis",
                  "type": "string[]"
                },
                {
                  "internalType": "uint256",
                  "name": "registrationDate",
                  "type": "uint256"
                }
              ],
              "internalType": "struct Appointment",
              "name": "appointment",
              "type": "tuple"
            }
          ],
          "internalType": "struct ClinicalDataType",
          "name": "",
          "type": "tuple"
        }
      ],
      "stateMutability": "view",
      "type": "function",
      "constant": true
    }
  ],
  "bytecode": "0x608060405234801561001057600080fd5b5061106a806100206000396000f3fe608060405234801561001057600080fd5b50600436106100365760003560e01c80634371aec81461003b578063c2bc2efc14610057575b600080fd5b6100556004803603810190610050919061097b565b610087565b005b610071600480360381019061006c9190610911565b610234565b60405161007e9190610d2c565b60405180910390f35b8173ffffffffffffffffffffffffffffffffffffffff1663075461726040518163ffffffff1660e01b815260040160206040518083038186803b1580156100cd57600080fd5b505afa1580156100e1573d6000803e3d6000fd5b505050506040513d601f19601f8201168201806040525081019061010591906108e8565b73ffffffffffffffffffffffffffffffffffffffff163373ffffffffffffffffffffffffffffffffffffffff1614610172576040517f08c379a000000000000000000000000000000000000000000000000000000000815260040161016990610d0c565b60405180910390fd5b60405180604001604052808273ffffffffffffffffffffffffffffffffffffffff168152602001848152506000808473ffffffffffffffffffffffffffffffffffffffff1673ffffffffffffffffffffffffffffffffffffffff16815260200190815260200160002060008201518160000160006101000a81548173ffffffffffffffffffffffffffffffffffffffff021916908373ffffffffffffffffffffffffffffffffffffffff16021790555060208201518160010155905050505050565b61023c610424565b3373ffffffffffffffffffffffffffffffffffffffff166000808473ffffffffffffffffffffffffffffffffffffffff1673ffffffffffffffffffffffffffffffffffffffff16815260200190815260200160002060000160009054906101000a900473ffffffffffffffffffffffffffffffffffffffff1673ffffffffffffffffffffffffffffffffffffffff161461030b576040517f08c379a000000000000000000000000000000000000000000000000000000000815260040161030290610ccc565b60405180910390fd5b426000808473ffffffffffffffffffffffffffffffffffffffff1673ffffffffffffffffffffffffffffffffffffffff16815260200190815260200160002060010154101561038f576040517f08c379a000000000000000000000000000000000000000000000000000000000815260040161038690610cec565b60405180910390fd5b8173ffffffffffffffffffffffffffffffffffffffff1663c2bc2efc336040518263ffffffff1660e01b81526004016103c89190610cb1565b60006040518083038186803b1580156103e057600080fd5b505afa1580156103f4573d6000803e3d6000fd5b505050506040513d6000823e3d601f19601f8201168201806040525081019061041d919061093a565b9050919050565b6040518060600160405280610437610457565b815260200161044461047f565b81526020016104516104a0565b81525090565b6040518060800160405280606081526020016060815260200160608152602001600081525090565b60405180606001604052806060815260200160608152602001606081525090565b6040518060800160405280606081526020016060815260200160608152602001600081525090565b60006104db6104d684610d73565b610d4e565b9050808382526020820190508260005b8581101561051b578151850161050188826105cc565b8452602084019350602083019250506001810190506104eb565b5050509392505050565b600061053861053384610d9f565b610d4e565b90508281526020810184848401111561055057600080fd5b61055b848285610e84565b509392505050565b60008135905061057281610fef565b92915050565b60008151905061058781610fef565b92915050565b600082601f83011261059e57600080fd5b81516105ae8482602086016104c8565b91505092915050565b6000813590506105c681611006565b92915050565b600082601f8301126105dd57600080fd5b81516105ed848260208601610525565b91505092915050565b60006080828403121561060857600080fd5b6106126080610d4e565b9050600082015167ffffffffffffffff81111561062e57600080fd5b61063a8482850161058d565b600083015250602082015167ffffffffffffffff81111561065a57600080fd5b6106668482850161058d565b602083015250604082015167ffffffffffffffff81111561068657600080fd5b6106928482850161058d565b60408301525060606106a6848285016108d3565b60608301525092915050565b6000606082840312156106c457600080fd5b6106ce6060610d4e565b9050600082015167ffffffffffffffff8111156106ea57600080fd5b6106f684828501610802565b600083015250602082015167ffffffffffffffff81111561071657600080fd5b6107228482850161075a565b602083015250604082015167ffffffffffffffff81111561074257600080fd5b61074e848285016105f6565b60408301525092915050565b60006060828403121561076c57600080fd5b6107766060610d4e565b9050600082015167ffffffffffffffff81111561079257600080fd5b61079e848285016105cc565b600083015250602082015167ffffffffffffffff8111156107be57600080fd5b6107ca848285016105cc565b602083015250604082015167ffffffffffffffff8111156107ea57600080fd5b6107f6848285016105cc565b60408301525092915050565b60006080828403121561081457600080fd5b61081e6080610d4e565b9050600082015167ffffffffffffffff81111561083a57600080fd5b610846848285016105cc565b600083015250602082015167ffffffffffffffff81111561086657600080fd5b610872848285016105cc565b602083015250604082015167ffffffffffffffff81111561089257600080fd5b61089e848285016105cc565b60408301525060606108b2848285016108d3565b60608301525092915050565b6000813590506108cd8161101d565b92915050565b6000815190506108e28161101d565b92915050565b6000602082840312156108fa57600080fd5b600061090884828501610578565b91505092915050565b60006020828403121561092357600080fd5b6000610931848285016105b7565b91505092915050565b60006020828403121561094c57600080fd5b600082015167ffffffffffffffff81111561096657600080fd5b610972848285016106b2565b91505092915050565b60008060006060848603121561099057600080fd5b600061099e868287016108be565b93505060206109af868287016105b7565b92505060406109c086828701610563565b9150509250925092565b60006109d68383610a62565b905092915050565b6109e781610e36565b82525050565b60006109f882610de0565b610a028185610e03565b935083602082028501610a1485610dd0565b8060005b85811015610a505784840389528151610a3185826109ca565b9450610a3c83610df6565b925060208a01995050600181019050610a18565b50829750879550505050505092915050565b6000610a6d82610deb565b610a778185610e14565b9350610a87818560208601610e84565b610a9081610f17565b840191505092915050565b6000610aa8602e83610e25565b9150610ab382610f28565b604082019050919050565b6000610acb601783610e25565b9150610ad682610f77565b602082019050919050565b6000610aee602b83610e25565b9150610af982610fa0565b604082019050919050565b60006080830160008301518482036000860152610b2182826109ed565b91505060208301518482036020860152610b3b82826109ed565b91505060408301518482036040860152610b5582826109ed565b9150506060830151610b6a6060860182610ca2565b508091505092915050565b60006060830160008301518482036000860152610b928282610c31565b91505060208301518482036020860152610bac8282610bd3565b91505060408301518482036040860152610bc68282610b04565b9150508091505092915050565b60006060830160008301518482036000860152610bf08282610a62565b91505060208301518482036020860152610c0a8282610a62565b91505060408301518482036040860152610c248282610a62565b9150508091505092915050565b60006080830160008301518482036000860152610c4e8282610a62565b91505060208301518482036020860152610c688282610a62565b91505060408301518482036040860152610c828282610a62565b9150506060830151610c976060860182610ca2565b508091505092915050565b610cab81610e7a565b82525050565b6000602082019050610cc660008301846109de565b92915050565b60006020820190508181036000830152610ce581610a9b565b9050919050565b60006020820190508181036000830152610d0581610abe565b9050919050565b60006020820190508181036000830152610d2581610ae1565b9050919050565b60006020820190508181036000830152610d468184610b75565b905092915050565b6000610d58610d69565b9050610d648282610eb7565b919050565b6000604051905090565b600067ffffffffffffffff821115610d8e57610d8d610ee8565b5b602082029050602081019050919050565b600067ffffffffffffffff821115610dba57610db9610ee8565b5b610dc382610f17565b9050602081019050919050565b6000819050602082019050919050565b600081519050919050565b600081519050919050565b6000602082019050919050565b600082825260208201905092915050565b600082825260208201905092915050565b600082825260208201905092915050565b6000610e4182610e5a565b9050919050565b6000610e5382610e36565b9050919050565b600073ffffffffffffffffffffffffffffffffffffffff82169050919050565b6000819050919050565b60005b83811015610ea2578082015181840152602081019050610e87565b83811115610eb1576000848401525b50505050565b610ec082610f17565b810181811067ffffffffffffffff82111715610edf57610ede610ee8565b5b80604052505050565b7f4e487b7100000000000000000000000000000000000000000000000000000000600052604160045260246000fd5b6000601f19601f8301169050919050565b7f796f7520617265206e6f7420616c6c6f77656420746f2072656164207468697360008201527f20636c696e6963616c2064617461000000000000000000000000000000000000602082015250565b7f796f757220616363657373206861732065787069726564000000000000000000600082015250565b7f796f7520617265206e6f7420746865206f776e6572206f66207468697320636c60008201527f696e6963616c2064617461000000000000000000000000000000000000000000602082015250565b610ff881610e36565b811461100357600080fd5b50565b61100f81610e48565b811461101a57600080fd5b50565b61102681610e7a565b811461103157600080fd5b5056fea26469706673582212207cfbd459ac77e0c0585d5cb7fefc90a92529ddd72fa973010cd778ff0782abc064736f6c63430008010033",
  "immutableReferences": {},
  "source": "// SPDX-License-Identifier: MIT\npragma solidity >=0.4.22 <0.9.0;\n\nimport \"./ClinicalData.sol\";\nimport \"entities/ClinicalDataType.sol\";\n\ncontract TemporaryAccess {\n\n  struct TemporaryAccessType {\n    address reader;\n    uint256 allowUntil;\n  }\n\n  mapping(ClinicalData => TemporaryAccessType) temporaryAccesses;\n\n  function allowAccess(uint256 _allowUntil, ClinicalData _clinicalData, address _reader) public {\n    require(msg.sender == _clinicalData.minter(), 'you are not the owner of this clinical data');\n    temporaryAccesses[_clinicalData] = TemporaryAccessType(_reader, _allowUntil);\n  }\n\n  function get(ClinicalData _clinicalData) public view returns(ClinicalDataType memory) {\n    require(temporaryAccesses[_clinicalData].reader == msg.sender, 'you are not allowed to read this clinical data');\n    require(temporaryAccesses[_clinicalData].allowUntil >= block.timestamp, 'your access has expired');\n    return _clinicalData.get(msg.sender);\n  }\n}\n",
  "sourcePath": "/home/henriquecouto/Projects/medicalchain/contracts/TemporaryAccess.sol",
  "compiler": {
    "name": "solc",
    "version": "0.8.1+commit.df193b15.Emscripten.clang"
  },
  "schemaVersion": "3.3.4",
  "updatedAt": "2021-03-14T01:18:03.122Z",
  "networkType": "ethereum",
  "devdoc": {
    "kind": "dev",
    "methods": {},
    "version": 1
  },
  "userdoc": {
    "kind": "user",
    "methods": {},
    "version": 1
  }
}